{
  "_format": "hh-sol-artifact-1",
  "contractName": "EthRioStays",
  "sourceName": "contracts/EthRioStays.sol",
  "abi": [
    {
      "inputs": [],
      "stateMutability": "nonpayable",
      "type": "constructor"
    },
    {
      "anonymous": false,
      "inputs": [
        {
          "indexed": true,
          "internalType": "address",
          "name": "owner",
          "type": "address"
        },
        {
          "indexed": true,
          "internalType": "address",
          "name": "approved",
          "type": "address"
        },
        {
          "indexed": true,
          "internalType": "uint256",
          "name": "tokenId",
          "type": "uint256"
        }
      ],
      "name": "Approval",
      "type": "event"
    },
    {
      "anonymous": false,
      "inputs": [
        {
          "indexed": true,
          "internalType": "address",
          "name": "owner",
          "type": "address"
        },
        {
          "indexed": true,
          "internalType": "address",
          "name": "operator",
          "type": "address"
        },
        {
          "indexed": false,
          "internalType": "bool",
          "name": "approved",
          "type": "bool"
        }
      ],
      "name": "ApprovalForAll",
      "type": "event"
    },
    {
      "anonymous": false,
      "inputs": [
        {
          "indexed": false,
          "internalType": "bytes32",
          "name": "facilityID",
          "type": "bytes32"
        },
        {
          "indexed": true,
          "internalType": "address",
          "name": "owner",
          "type": "address"
        },
        {
          "indexed": false,
          "internalType": "string",
          "name": "dataURI",
          "type": "string"
        }
      ],
      "name": "LodgingFacilityCreated",
      "type": "event"
    },
    {
      "anonymous": false,
      "inputs": [
        {
          "indexed": false,
          "internalType": "bytes32",
          "name": "facilityID",
          "type": "bytes32"
        },
        {
          "indexed": false,
          "internalType": "uint64",
          "name": "quantity",
          "type": "uint64"
        },
        {
          "indexed": false,
          "internalType": "uint64",
          "name": "pricePerNightWei",
          "type": "uint64"
        },
        {
          "indexed": false,
          "internalType": "bool",
          "name": "active",
          "type": "bool"
        },
        {
          "indexed": false,
          "internalType": "string",
          "name": "dataURI",
          "type": "string"
        }
      ],
      "name": "SpaceAdded",
      "type": "event"
    },
    {
      "anonymous": false,
      "inputs": [
        {
          "indexed": true,
          "internalType": "address",
          "name": "from",
          "type": "address"
        },
        {
          "indexed": true,
          "internalType": "address",
          "name": "to",
          "type": "address"
        },
        {
          "indexed": true,
          "internalType": "uint256",
          "name": "tokenId",
          "type": "uint256"
        }
      ],
      "name": "Transfer",
      "type": "event"
    },
    {
      "inputs": [
        {
          "internalType": "bytes32",
          "name": "_lodgingFacilityId",
          "type": "bytes32"
        },
        {
          "internalType": "uint64",
          "name": "_quantity",
          "type": "uint64"
        },
        {
          "internalType": "uint64",
          "name": "_pricePerNightWei",
          "type": "uint64"
        },
        {
          "internalType": "bool",
          "name": "_active",
          "type": "bool"
        },
        {
          "internalType": "string",
          "name": "_dataURI",
          "type": "string"
        }
      ],
      "name": "addSpace",
      "outputs": [],
      "stateMutability": "nonpayable",
      "type": "function"
    },
    {
      "inputs": [
        {
          "internalType": "address",
          "name": "to",
          "type": "address"
        },
        {
          "internalType": "uint256",
          "name": "tokenId",
          "type": "uint256"
        }
      ],
      "name": "approve",
      "outputs": [],
      "stateMutability": "nonpayable",
      "type": "function"
    },
    {
      "inputs": [
        {
          "internalType": "address",
          "name": "owner",
          "type": "address"
        }
      ],
      "name": "balanceOf",
      "outputs": [
        {
          "internalType": "uint256",
          "name": "",
          "type": "uint256"
        }
      ],
      "stateMutability": "view",
      "type": "function"
    },
    {
      "inputs": [],
      "name": "getAllLodgingFacilityIds",
      "outputs": [
        {
          "internalType": "bytes32[]",
          "name": "",
          "type": "bytes32[]"
        }
      ],
      "stateMutability": "view",
      "type": "function"
    },
    {
      "inputs": [
        {
          "internalType": "uint256",
          "name": "tokenId",
          "type": "uint256"
        }
      ],
      "name": "getApproved",
      "outputs": [
        {
          "internalType": "address",
          "name": "",
          "type": "address"
        }
      ],
      "stateMutability": "view",
      "type": "function"
    },
    {
      "inputs": [],
      "name": "getMyLodgingFacilityIds",
      "outputs": [
        {
          "internalType": "bytes32[]",
          "name": "",
          "type": "bytes32[]"
        }
      ],
      "stateMutability": "view",
      "type": "function"
    },
    {
      "inputs": [
        {
          "internalType": "bytes32",
          "name": "_lodgingFacilityId",
          "type": "bytes32"
        }
      ],
      "name": "getSpacesByFacilityId",
      "outputs": [
        {
          "components": [
            {
              "internalType": "uint64",
              "name": "quantity",
              "type": "uint64"
            },
            {
              "internalType": "uint64",
              "name": "pricePerNightWei",
              "type": "uint64"
            },
            {
              "internalType": "bool",
              "name": "active",
              "type": "bool"
            },
            {
              "internalType": "string",
              "name": "dataURI",
              "type": "string"
            }
          ],
          "internalType": "struct EthRioStays.Space[]",
          "name": "",
          "type": "tuple[]"
        }
      ],
      "stateMutability": "view",
      "type": "function"
    },
    {
      "inputs": [
        {
          "internalType": "address",
          "name": "owner",
          "type": "address"
        },
        {
          "internalType": "address",
          "name": "operator",
          "type": "address"
        }
      ],
      "name": "isApprovedForAll",
      "outputs": [
        {
          "internalType": "bool",
          "name": "",
          "type": "bool"
        }
      ],
      "stateMutability": "view",
      "type": "function"
    },
    {
      "inputs": [
        {
          "internalType": "bytes32",
          "name": "",
          "type": "bytes32"
        }
      ],
      "name": "lodgingFacilities",
      "outputs": [
        {
          "internalType": "address",
          "name": "owner",
          "type": "address"
        },
        {
          "internalType": "string",
          "name": "dataURI",
          "type": "string"
        },
        {
          "internalType": "bool",
          "name": "exists",
          "type": "bool"
        }
      ],
      "stateMutability": "view",
      "type": "function"
    },
    {
      "inputs": [],
      "name": "name",
      "outputs": [
        {
          "internalType": "string",
          "name": "",
          "type": "string"
        }
      ],
      "stateMutability": "view",
      "type": "function"
    },
    {
      "inputs": [
        {
          "internalType": "uint256",
          "name": "tokenId",
          "type": "uint256"
        }
      ],
      "name": "ownerOf",
      "outputs": [
        {
          "internalType": "address",
          "name": "",
          "type": "address"
        }
      ],
      "stateMutability": "view",
      "type": "function"
    },
    {
      "inputs": [
        {
          "internalType": "string",
          "name": "_dataURI",
          "type": "string"
        }
      ],
      "name": "registerLodgingFacility",
      "outputs": [],
      "stateMutability": "nonpayable",
      "type": "function"
    },
    {
      "inputs": [
        {
          "internalType": "uint256",
          "name": "_lodgingFacilityId",
          "type": "uint256"
        }
      ],
      "name": "removeLodgingFacility",
      "outputs": [],
      "stateMutability": "nonpayable",
      "type": "function"
    },
    {
      "inputs": [
        {
          "internalType": "address",
          "name": "from",
          "type": "address"
        },
        {
          "internalType": "address",
          "name": "to",
          "type": "address"
        },
        {
          "internalType": "uint256",
          "name": "tokenId",
          "type": "uint256"
        }
      ],
      "name": "safeTransferFrom",
      "outputs": [],
      "stateMutability": "nonpayable",
      "type": "function"
    },
    {
      "inputs": [
        {
          "internalType": "address",
          "name": "from",
          "type": "address"
        },
        {
          "internalType": "address",
          "name": "to",
          "type": "address"
        },
        {
          "internalType": "uint256",
          "name": "tokenId",
          "type": "uint256"
        },
        {
          "internalType": "bytes",
          "name": "_data",
          "type": "bytes"
        }
      ],
      "name": "safeTransferFrom",
      "outputs": [],
      "stateMutability": "nonpayable",
      "type": "function"
    },
    {
      "inputs": [
        {
          "internalType": "address",
          "name": "operator",
          "type": "address"
        },
        {
          "internalType": "bool",
          "name": "approved",
          "type": "bool"
        }
      ],
      "name": "setApprovalForAll",
      "outputs": [],
      "stateMutability": "nonpayable",
      "type": "function"
    },
    {
      "inputs": [
        {
          "internalType": "bytes4",
          "name": "interfaceId",
          "type": "bytes4"
        }
      ],
      "name": "supportsInterface",
      "outputs": [
        {
          "internalType": "bool",
          "name": "",
          "type": "bool"
        }
      ],
      "stateMutability": "view",
      "type": "function"
    },
    {
      "inputs": [],
      "name": "symbol",
      "outputs": [
        {
          "internalType": "string",
          "name": "",
          "type": "string"
        }
      ],
      "stateMutability": "view",
      "type": "function"
    },
    {
      "inputs": [
        {
          "internalType": "uint256",
          "name": "tokenId",
          "type": "uint256"
        }
      ],
      "name": "tokenURI",
      "outputs": [
        {
          "internalType": "string",
          "name": "",
          "type": "string"
        }
      ],
      "stateMutability": "view",
      "type": "function"
    },
    {
      "inputs": [
        {
          "internalType": "address",
          "name": "from",
          "type": "address"
        },
        {
          "internalType": "address",
          "name": "to",
          "type": "address"
        },
        {
          "internalType": "uint256",
          "name": "tokenId",
          "type": "uint256"
        }
      ],
      "name": "transferFrom",
      "outputs": [],
      "stateMutability": "nonpayable",
      "type": "function"
    },
    {
      "inputs": [
        {
          "internalType": "uint256",
          "name": "_lodgingFacilityId",
          "type": "uint256"
        },
        {
          "internalType": "string",
          "name": "_dataURI",
          "type": "string"
        }
      ],
      "name": "updateLodgingFacility",
      "outputs": [],
      "stateMutability": "nonpayable",
      "type": "function"
    }
  ],
  "bytecode": "0x60806040523480156200001157600080fd5b50604080518082018252600b81526a45746852696f537461797360a81b60208083019182528351808501909452600584526422a929991960d91b908401528151919291620000629160009162000081565b5080516200007890600190602084019062000081565b50505062000164565b8280546200008f9062000127565b90600052602060002090601f016020900481019282620000b35760008555620000fe565b82601f10620000ce57805160ff1916838001178555620000fe565b82800160010185558215620000fe579182015b82811115620000fe578251825591602001919060010190620000e1565b506200010c92915062000110565b5090565b5b808211156200010c576000815560010162000111565b600181811c908216806200013c57607f821691505b602082108114156200015e57634e487b7160e01b600052602260045260246000fd5b50919050565b611feb80620001746000396000f3fe608060405234801561001057600080fd5b50600436106101375760003560e01c806370a08231116100b8578063b88d4fde1161007c578063b88d4fde14610291578063c87b56dd146102a4578063cc808a01146102b7578063e985e9c5146102c8578063eb9a1dfb14610304578063ffae74151461031757600080fd5b806370a082311461023857806395d89b4114610259578063a22cb46514610261578063a728da3314610274578063b38759fd1461028957600080fd5b80631feaf846116100ff5780631feaf846146101cc57806323b872dd146101ec5780633cd3631a146101ff57806342842e0e146102125780636352211e1461022557600080fd5b806301ffc9a71461013c57806306fdde0314610164578063081812fc14610179578063095ea7b3146101a457806313936766146101b9575b600080fd5b61014f61014a3660046117c3565b610339565b60405190151581526020015b60405180910390f35b61016c61038b565b60405161015b9190611838565b61018c61018736600461184b565b61041d565b6040516001600160a01b03909116815260200161015b565b6101b76101b2366004611880565b6104b7565b005b6101b76101c73660046118f2565b505050565b6101df6101da36600461184b565b6105c8565b60405161015b919061193d565b6101b76101fa3660046119d6565b610704565b6101b761020d366004611a12565b610735565b6101b76102203660046119d6565b61095e565b61018c61023336600461184b565b610979565b61024b610246366004611a53565b6109f0565b60405190815260200161015b565b61016c610a77565b6101b761026f366004611a7e565b610a86565b61027c610a95565b60405161015b9190611ab1565b61027c610af5565b6101b761029f366004611b0b565b610b4b565b61016c6102b236600461184b565b610b83565b6101b76102c536600461184b565b50565b61014f6102d6366004611be6565b6001600160a01b03918216600090815260056020908152604080832093909416825291909152205460ff1690565b6101b7610312366004611c27565b610d0a565b61032a61032536600461184b565b610f7a565b60405161015b93929190611ca5565b60006001600160e01b031982166380ac58cd60e01b148061036a57506001600160e01b03198216635b5e139f60e01b145b8061038557506301ffc9a760e01b6001600160e01b03198316145b92915050565b60606000805461039a90611cdb565b80601f01602080910402602001604051908101604052809291908181526020018280546103c690611cdb565b80156104135780601f106103e857610100808354040283529160200191610413565b820191906000526020600020905b8154815290600101906020018083116103f657829003601f168201915b5050505050905090565b6000818152600260205260408120546001600160a01b031661049b5760405162461bcd60e51b815260206004820152602c60248201527f4552433732313a20617070726f76656420717565727920666f72206e6f6e657860448201526b34b9ba32b73a103a37b5b2b760a11b60648201526084015b60405180910390fd5b506000908152600460205260409020546001600160a01b031690565b60006104c282610979565b9050806001600160a01b0316836001600160a01b031614156105305760405162461bcd60e51b815260206004820152602160248201527f4552433732313a20617070726f76616c20746f2063757272656e74206f776e656044820152603960f91b6064820152608401610492565b336001600160a01b038216148061054c575061054c81336102d6565b6105be5760405162461bcd60e51b815260206004820152603860248201527f4552433732313a20617070726f76652063616c6c6572206973206e6f74206f7760448201527f6e6572206e6f7220617070726f76656420666f7220616c6c00000000000000006064820152608401610492565b6101c78383611032565b6060600b6000838152602001908152602001600020805480602002602001604051908101604052809291908181526020016000905b828210156106f9576000848152602090819020604080516080810182526002860290920180546001600160401b038082168552600160401b82041694840194909452600160801b90930460ff1615159082015260018201805491929160608401919061066890611cdb565b80601f016020809104026020016040519081016040528092919081815260200182805461069490611cdb565b80156106e15780601f106106b6576101008083540402835291602001916106e1565b820191906000526020600020905b8154815290600101906020018083116106c457829003601f168201915b505050505081525050815260200190600101906105fd565b505050509050919050565b61070e33826110a0565b61072a5760405162461bcd60e51b815260040161049290611d16565b6101c7838383611193565b8061077e5760405162461bcd60e51b815260206004820152601960248201527811185d1848155492481b5d5cdd081899481c1c9bdd9a591959603a1b6044820152606401610492565b600033838360405160200161079593929190611d67565b60408051601f1981840301815291815281516020928301206000818152600990935291206002015490915060ff16156108105760405162461bcd60e51b815260206004820152601760248201527f466163696c69747920616c7265616479206578697374730000000000000000006044820152606401610492565b60405180606001604052806108223390565b6001600160a01b0316815260200184848080601f0160208091040260200160405190810160405280939291908181526020018383808284376000920182905250938552505060016020938401819052858352600984526040909220845181546001600160a01b0319166001600160a01b0390911617815584840151805191946108b094860193500190611714565b50604091820151600291909101805460ff19169115159190911790556008805460018181019092557ff3f7a9fe364faab93b216da50a3214154f22a0a2b415b23a84c8169e8b636ee30183905533600081815260076020908152848220805494850181558252902090910183905590517f28c9a25063d40c8cf423202182ed575cc97982c1fd1771bd9721e19a38cc491d9061095190849087908790611dbc565b60405180910390a2505050565b6101c783838360405180602001604052806000815250610b4b565b6000818152600260205260408120546001600160a01b0316806103855760405162461bcd60e51b815260206004820152602960248201527f4552433732313a206f776e657220717565727920666f72206e6f6e657869737460448201526832b73a103a37b5b2b760b91b6064820152608401610492565b60006001600160a01b038216610a5b5760405162461bcd60e51b815260206004820152602a60248201527f4552433732313a2062616c616e636520717565727920666f7220746865207a65604482015269726f206164647265737360b01b6064820152608401610492565b506001600160a01b031660009081526003602052604090205490565b60606001805461039a90611cdb565b610a9133838361132f565b5050565b3360009081526007602090815260409182902080548351818402810184019094528084526060939283018282801561041357602002820191906000526020600020905b815481526020019060010190808311610ad8575050505050905090565b606060088054806020026020016040519081016040528092919081815260200182805480156104135760200282019190600052602060002090815481526020019060010190808311610ad8575050505050905090565b610b5533836110a0565b610b715760405162461bcd60e51b815260040161049290611d16565b610b7d848484846113fe565b50505050565b6000818152600260205260409020546060906001600160a01b0316610c045760405162461bcd60e51b815260206004820152603160248201527f45524337323155524953746f726167653a2055524920717565727920666f72206044820152703737b732bc34b9ba32b73a103a37b5b2b760791b6064820152608401610492565b60008281526006602052604081208054610c1d90611cdb565b80601f0160208091040260200160405190810160405280929190818152602001828054610c4990611cdb565b8015610c965780601f10610c6b57610100808354040283529160200191610c96565b820191906000526020600020905b815481529060010190602001808311610c7957829003601f168201915b505050505090506000610cb460408051602081019091526000815290565b9050805160001415610cc7575092915050565b815115610cf9578082604051602001610ce1929190611ddf565b60405160208183030381529060405292505050919050565b610d0284611431565b949350505050565b600086815260096020526040902060020154869060ff16610d6d5760405162461bcd60e51b815260206004820152601760248201527f466163696c69747920646f6573206e6f742065786973740000000000000000006044820152606401610492565b6000818152600960205260409020546001600160a01b03163314610dde5760405162461bcd60e51b815260206004820152602260248201527f4f6e6c7920666163696c697479206f776e6572206d6179206164642053706163604482015261657360f01b6064820152608401610492565b81610e275760405162461bcd60e51b815260206004820152601960248201527811185d1848155492481b5d5cdd081899481c1c9bdd9a591959603a1b6044820152606401610492565b600b60008281526020019081526020016000206040518060800160405280886001600160401b03168152602001876001600160401b03168152602001861515815260200185858080601f0160208091040260200160405190810160405280939291908181526020018383808284376000920182905250939094525050835460018181018655948252602091829020845160029092020180548386015160408701511515600160801b0260ff60801b196001600160401b03928316600160401b026fffffffffffffffffffffffffffffffff19909416929095169190911791909117929092169190911781556060840151805194959194610f2d9450918501920190611714565b5050507f7993127b29bb7eb5c740a2bdf13dbe1721be38172db915f7767aefe0bae7936e818787878787604051610f6996959493929190611e0e565b60405180910390a150505050505050565b600960205260009081526040902080546001820180546001600160a01b039092169291610fa690611cdb565b80601f0160208091040260200160405190810160405280929190818152602001828054610fd290611cdb565b801561101f5780601f10610ff45761010080835404028352916020019161101f565b820191906000526020600020905b81548152906001019060200180831161100257829003601f168201915b5050506002909301549192505060ff1683565b600081815260046020526040902080546001600160a01b0319166001600160a01b038416908117909155819061106782610979565b6001600160a01b03167f8c5be1e5ebec7d5bd14f71427d1e84f3dd0314c0f7b2291e5b200ac8c7c3b92560405160405180910390a45050565b6000818152600260205260408120546001600160a01b03166111195760405162461bcd60e51b815260206004820152602c60248201527f4552433732313a206f70657261746f7220717565727920666f72206e6f6e657860448201526b34b9ba32b73a103a37b5b2b760a11b6064820152608401610492565b600061112483610979565b9050806001600160a01b0316846001600160a01b0316148061115f5750836001600160a01b03166111548461041d565b6001600160a01b0316145b80610d0257506001600160a01b0380821660009081526005602090815260408083209388168352929052205460ff16610d02565b826001600160a01b03166111a682610979565b6001600160a01b03161461120a5760405162461bcd60e51b815260206004820152602560248201527f4552433732313a207472616e736665722066726f6d20696e636f72726563742060448201526437bbb732b960d91b6064820152608401610492565b6001600160a01b03821661126c5760405162461bcd60e51b8152602060048201526024808201527f4552433732313a207472616e7366657220746f20746865207a65726f206164646044820152637265737360e01b6064820152608401610492565b611277600082611032565b6001600160a01b03831660009081526003602052604081208054600192906112a0908490611e6b565b90915550506001600160a01b03821660009081526003602052604081208054600192906112ce908490611e82565b909155505060008181526002602052604080822080546001600160a01b0319166001600160a01b0386811691821790925591518493918716917fddf252ad1be2c89b69c2b068fc378daa952ba7f163c4a11628f55a4df523b3ef91a4505050565b816001600160a01b0316836001600160a01b031614156113915760405162461bcd60e51b815260206004820152601960248201527f4552433732313a20617070726f766520746f2063616c6c6572000000000000006044820152606401610492565b6001600160a01b03838116600081815260056020908152604080832094871680845294825291829020805460ff191686151590811790915591519182527f17307eab39ab6107e8899845ad3d59bd9653f200f220920489ca2b5937696c31910160405180910390a3505050565b611409848484611193565b61141584848484611519565b610b7d5760405162461bcd60e51b815260040161049290611e9a565b6000818152600260205260409020546060906001600160a01b03166114b05760405162461bcd60e51b815260206004820152602f60248201527f4552433732314d657461646174613a2055524920717565727920666f72206e6f60448201526e3732bc34b9ba32b73a103a37b5b2b760891b6064820152608401610492565b60006114c760408051602081019091526000815290565b905060008151116114e75760405180602001604052806000815250611512565b806114f184611617565b604051602001611502929190611ddf565b6040516020818303038152906040525b9392505050565b60006001600160a01b0384163b1561160c57604051630a85bd0160e11b81526001600160a01b0385169063150b7a029061155d903390899088908890600401611eec565b6020604051808303816000875af1925050508015611598575060408051601f3d908101601f1916820190925261159591810190611f29565b60015b6115f2573d8080156115c6576040519150601f19603f3d011682016040523d82523d6000602084013e6115cb565b606091505b5080516115ea5760405162461bcd60e51b815260040161049290611e9a565b805181602001fd5b6001600160e01b031916630a85bd0160e11b149050610d02565b506001949350505050565b60608161163b5750506040805180820190915260018152600360fc1b602082015290565b8160005b8115611665578061164f81611f46565b915061165e9050600a83611f77565b915061163f565b6000816001600160401b0381111561167f5761167f611af5565b6040519080825280601f01601f1916602001820160405280156116a9576020820181803683370190505b5090505b8415610d02576116be600183611e6b565b91506116cb600a86611f8b565b6116d6906030611e82565b60f81b8183815181106116eb576116eb611f9f565b60200101906001600160f81b031916908160001a90535061170d600a86611f77565b94506116ad565b82805461172090611cdb565b90600052602060002090601f0160209004810192826117425760008555611788565b82601f1061175b57805160ff1916838001178555611788565b82800160010185558215611788579182015b8281111561178857825182559160200191906001019061176d565b50611794929150611798565b5090565b5b808211156117945760008155600101611799565b6001600160e01b0319811681146102c557600080fd5b6000602082840312156117d557600080fd5b8135611512816117ad565b60005b838110156117fb5781810151838201526020016117e3565b83811115610b7d5750506000910152565b600081518084526118248160208601602086016117e0565b601f01601f19169290920160200192915050565b602081526000611512602083018461180c565b60006020828403121561185d57600080fd5b5035919050565b80356001600160a01b038116811461187b57600080fd5b919050565b6000806040838503121561189357600080fd5b61189c83611864565b946020939093013593505050565b60008083601f8401126118bc57600080fd5b5081356001600160401b038111156118d357600080fd5b6020830191508360208285010111156118eb57600080fd5b9250929050565b60008060006040848603121561190757600080fd5b8335925060208401356001600160401b0381111561192457600080fd5b611930868287016118aa565b9497909650939450505050565b60006020808301818452808551808352604092508286019150828160051b87010184880160005b838110156119c857888303603f19018552815180516001600160401b039081168552888201511688850152868101511515878501526060908101516080918501829052906119b48186018361180c565b968901969450505090860190600101611964565b509098975050505050505050565b6000806000606084860312156119eb57600080fd5b6119f484611864565b9250611a0260208501611864565b9150604084013590509250925092565b60008060208385031215611a2557600080fd5b82356001600160401b03811115611a3b57600080fd5b611a47858286016118aa565b90969095509350505050565b600060208284031215611a6557600080fd5b61151282611864565b8035801515811461187b57600080fd5b60008060408385031215611a9157600080fd5b611a9a83611864565b9150611aa860208401611a6e565b90509250929050565b6020808252825182820181905260009190848201906040850190845b81811015611ae957835183529284019291840191600101611acd565b50909695505050505050565b634e487b7160e01b600052604160045260246000fd5b60008060008060808587031215611b2157600080fd5b611b2a85611864565b9350611b3860208601611864565b92506040850135915060608501356001600160401b0380821115611b5b57600080fd5b818701915087601f830112611b6f57600080fd5b813581811115611b8157611b81611af5565b604051601f8201601f19908116603f01168101908382118183101715611ba957611ba9611af5565b816040528281528a6020848701011115611bc257600080fd5b82602086016020830137600060208483010152809550505050505092959194509250565b60008060408385031215611bf957600080fd5b611c0283611864565b9150611aa860208401611864565b80356001600160401b038116811461187b57600080fd5b60008060008060008060a08789031215611c4057600080fd5b86359550611c5060208801611c10565b9450611c5e60408801611c10565b9350611c6c60608801611a6e565b925060808701356001600160401b03811115611c8757600080fd5b611c9389828a016118aa565b979a9699509497509295939492505050565b6001600160a01b0384168152606060208201819052600090611cc99083018561180c565b90508215156040830152949350505050565b600181811c90821680611cef57607f821691505b60208210811415611d1057634e487b7160e01b600052602260045260246000fd5b50919050565b60208082526031908201527f4552433732313a207472616e736665722063616c6c6572206973206e6f74206f6040820152701ddb995c881b9bdc88185c1c1c9bdd9959607a1b606082015260800190565b6bffffffffffffffffffffffff198460601b168152818360148301376000910160140190815292915050565b81835281816020850137506000828201602090810191909152601f909101601f19169091010190565b838152604060208201526000611dd6604083018486611d93565b95945050505050565b60008351611df18184602088016117e0565b835190830190611e058183602088016117e0565b01949350505050565b86815260006001600160401b038088166020840152808716604084015250841515606083015260a06080830152611e4960a083018486611d93565b98975050505050505050565b634e487b7160e01b600052601160045260246000fd5b600082821015611e7d57611e7d611e55565b500390565b60008219821115611e9557611e95611e55565b500190565b60208082526032908201527f4552433732313a207472616e7366657220746f206e6f6e20455243373231526560408201527131b2b4bb32b91034b6b83632b6b2b73a32b960711b606082015260800190565b6001600160a01b0385811682528416602082015260408101839052608060608201819052600090611f1f9083018461180c565b9695505050505050565b600060208284031215611f3b57600080fd5b8151611512816117ad565b6000600019821415611f5a57611f5a611e55565b5060010190565b634e487b7160e01b600052601260045260246000fd5b600082611f8657611f86611f61565b500490565b600082611f9a57611f9a611f61565b500690565b634e487b7160e01b600052603260045260246000fdfea26469706673582212204de806d7c4b75ce4126eec7a76f48db9552fd4bdb6a4da0cca186eab3062254564736f6c634300080a0033",
  "linkReferences": {},
  "deployedLinkReferences": {}
}