{
  "_format": "hh-sol-artifact-1",
  "contractName": "EthRioStays",
  "sourceName": "contracts/EthRioStays.sol",
  "abi": [
    {
      "inputs": [],
      "stateMutability": "nonpayable",
      "type": "constructor"
    },
    {
      "anonymous": false,
      "inputs": [
        {
          "indexed": true,
          "internalType": "address",
          "name": "owner",
          "type": "address"
        },
        {
          "indexed": true,
          "internalType": "address",
          "name": "approved",
          "type": "address"
        },
        {
          "indexed": true,
          "internalType": "uint256",
          "name": "tokenId",
          "type": "uint256"
        }
      ],
      "name": "Approval",
      "type": "event"
    },
    {
      "anonymous": false,
      "inputs": [
        {
          "indexed": true,
          "internalType": "address",
          "name": "owner",
          "type": "address"
        },
        {
          "indexed": true,
          "internalType": "address",
          "name": "operator",
          "type": "address"
        },
        {
          "indexed": false,
          "internalType": "bool",
          "name": "approved",
          "type": "bool"
        }
      ],
      "name": "ApprovalForAll",
      "type": "event"
    },
    {
      "anonymous": false,
      "inputs": [
        {
          "indexed": false,
          "internalType": "bytes32",
          "name": "facilityID",
          "type": "bytes32"
        },
        {
          "indexed": true,
          "internalType": "address",
          "name": "owner",
          "type": "address"
        },
        {
          "indexed": false,
          "internalType": "string",
          "name": "dataURI",
          "type": "string"
        }
      ],
      "name": "LodgingFacilityCreated",
      "type": "event"
    },
    {
      "anonymous": false,
      "inputs": [
        {
          "indexed": false,
          "internalType": "bytes32",
          "name": "facilityID",
          "type": "bytes32"
        },
        {
          "indexed": false,
          "internalType": "uint64",
          "name": "capacity",
          "type": "uint64"
        },
        {
          "indexed": false,
          "internalType": "uint64",
          "name": "pricePerNightWei",
          "type": "uint64"
        },
        {
          "indexed": false,
          "internalType": "bool",
          "name": "active",
          "type": "bool"
        },
        {
          "indexed": false,
          "internalType": "string",
          "name": "dataURI",
          "type": "string"
        }
      ],
      "name": "SpaceAdded",
      "type": "event"
    },
    {
      "anonymous": false,
      "inputs": [
        {
          "indexed": false,
          "internalType": "bytes32",
          "name": "facilityID",
          "type": "bytes32"
        },
        {
          "indexed": false,
          "internalType": "uint256",
          "name": "index",
          "type": "uint256"
        },
        {
          "indexed": false,
          "internalType": "uint64",
          "name": "capacity",
          "type": "uint64"
        },
        {
          "indexed": false,
          "internalType": "uint64",
          "name": "pricePerNightWei",
          "type": "uint64"
        },
        {
          "indexed": false,
          "internalType": "bool",
          "name": "active",
          "type": "bool"
        },
        {
          "indexed": false,
          "internalType": "string",
          "name": "dataURI",
          "type": "string"
        }
      ],
      "name": "SpaceUpdated",
      "type": "event"
    },
    {
      "anonymous": false,
      "inputs": [
        {
          "indexed": false,
          "internalType": "bytes32",
          "name": "spaceID",
          "type": "bytes32"
        },
        {
          "indexed": false,
          "internalType": "uint256",
          "name": "tokenId",
          "type": "uint256"
        }
      ],
      "name": "StayBooked",
      "type": "event"
    },
    {
      "anonymous": false,
      "inputs": [
        {
          "indexed": true,
          "internalType": "address",
          "name": "from",
          "type": "address"
        },
        {
          "indexed": true,
          "internalType": "address",
          "name": "to",
          "type": "address"
        },
        {
          "indexed": true,
          "internalType": "uint256",
          "name": "tokenId",
          "type": "uint256"
        }
      ],
      "name": "Transfer",
      "type": "event"
    },
    {
      "inputs": [
        {
          "internalType": "bytes32",
          "name": "_lodgingFacilityId",
          "type": "bytes32"
        },
        {
          "internalType": "uint16",
          "name": "_capacity",
          "type": "uint16"
        },
        {
          "internalType": "uint64",
          "name": "_pricePerNightWei",
          "type": "uint64"
        },
        {
          "internalType": "bool",
          "name": "_active",
          "type": "bool"
        },
        {
          "internalType": "string",
          "name": "_dataURI",
          "type": "string"
        }
      ],
      "name": "addSpace",
      "outputs": [],
      "stateMutability": "nonpayable",
      "type": "function"
    },
    {
      "inputs": [
        {
          "internalType": "address",
          "name": "to",
          "type": "address"
        },
        {
          "internalType": "uint256",
          "name": "tokenId",
          "type": "uint256"
        }
      ],
      "name": "approve",
      "outputs": [],
      "stateMutability": "nonpayable",
      "type": "function"
    },
    {
      "inputs": [
        {
          "internalType": "address",
          "name": "owner",
          "type": "address"
        }
      ],
      "name": "balanceOf",
      "outputs": [
        {
          "internalType": "uint256",
          "name": "",
          "type": "uint256"
        }
      ],
      "stateMutability": "view",
      "type": "function"
    },
    {
      "inputs": [
        {
          "internalType": "bytes32",
          "name": "_spaceId",
          "type": "bytes32"
        },
        {
          "internalType": "uint16",
          "name": "_startDay",
          "type": "uint16"
        },
        {
          "internalType": "uint16",
          "name": "_numberOfDays",
          "type": "uint16"
        },
        {
          "internalType": "uint16",
          "name": "_quantity",
          "type": "uint16"
        },
        {
          "internalType": "string",
          "name": "_tokenURI",
          "type": "string"
        }
      ],
      "name": "bookAStay",
      "outputs": [
        {
          "internalType": "uint256",
          "name": "",
          "type": "uint256"
        }
      ],
      "stateMutability": "payable",
      "type": "function"
    },
    {
      "inputs": [],
      "name": "dayZero",
      "outputs": [
        {
          "internalType": "uint32",
          "name": "",
          "type": "uint32"
        }
      ],
      "stateMutability": "view",
      "type": "function"
    },
    {
      "inputs": [
        {
          "internalType": "uint256",
          "name": "_lodgingFacilityId",
          "type": "uint256"
        }
      ],
      "name": "deactivateLodgingFacility",
      "outputs": [],
      "stateMutability": "nonpayable",
      "type": "function"
    },
    {
      "inputs": [
        {
          "internalType": "uint256",
          "name": "_lodgingFacilityId",
          "type": "uint256"
        }
      ],
      "name": "deleteLodgingFacility",
      "outputs": [],
      "stateMutability": "nonpayable",
      "type": "function"
    },
    {
      "inputs": [],
      "name": "getAllLodgingFacilityIds",
      "outputs": [
        {
          "internalType": "bytes32[]",
          "name": "",
          "type": "bytes32[]"
        }
      ],
      "stateMutability": "view",
      "type": "function"
    },
    {
      "inputs": [
        {
          "internalType": "uint256",
          "name": "tokenId",
          "type": "uint256"
        }
      ],
      "name": "getApproved",
      "outputs": [
        {
          "internalType": "address",
          "name": "",
          "type": "address"
        }
      ],
      "stateMutability": "view",
      "type": "function"
    },
    {
      "inputs": [
        {
          "internalType": "bytes32",
          "name": "_spaceId",
          "type": "bytes32"
        },
        {
          "internalType": "uint16",
          "name": "_startDay",
          "type": "uint16"
        },
        {
          "internalType": "uint16",
          "name": "_numberOfDays",
          "type": "uint16"
        }
      ],
      "name": "getAvailability",
      "outputs": [
        {
          "internalType": "uint16[]",
          "name": "",
          "type": "uint16[]"
        }
      ],
      "stateMutability": "view",
      "type": "function"
    },
    {
      "inputs": [],
      "name": "getMyLodgingFacilityIds",
      "outputs": [
        {
          "internalType": "bytes32[]",
          "name": "",
          "type": "bytes32[]"
        }
      ],
      "stateMutability": "view",
      "type": "function"
    },
    {
      "inputs": [
        {
          "internalType": "bytes32",
          "name": "_lodgingFacilityId",
          "type": "bytes32"
        }
      ],
      "name": "getSpaceIdsByFacilityId",
      "outputs": [
        {
          "internalType": "bytes32[]",
          "name": "",
          "type": "bytes32[]"
        }
      ],
      "stateMutability": "view",
      "type": "function"
    },
    {
      "inputs": [
        {
          "internalType": "address",
          "name": "owner",
          "type": "address"
        },
        {
          "internalType": "address",
          "name": "operator",
          "type": "address"
        }
      ],
      "name": "isApprovedForAll",
      "outputs": [
        {
          "internalType": "bool",
          "name": "",
          "type": "bool"
        }
      ],
      "stateMutability": "view",
      "type": "function"
    },
    {
      "inputs": [
        {
          "internalType": "bytes32",
          "name": "",
          "type": "bytes32"
        }
      ],
      "name": "lodgingFacilities",
      "outputs": [
        {
          "internalType": "address",
          "name": "owner",
          "type": "address"
        },
        {
          "internalType": "bool",
          "name": "active",
          "type": "bool"
        },
        {
          "internalType": "bool",
          "name": "exists",
          "type": "bool"
        },
        {
          "internalType": "string",
          "name": "dataURI",
          "type": "string"
        }
      ],
      "stateMutability": "view",
      "type": "function"
    },
    {
      "inputs": [],
      "name": "name",
      "outputs": [
        {
          "internalType": "string",
          "name": "",
          "type": "string"
        }
      ],
      "stateMutability": "view",
      "type": "function"
    },
    {
      "inputs": [
        {
          "internalType": "uint256",
          "name": "tokenId",
          "type": "uint256"
        }
      ],
      "name": "ownerOf",
      "outputs": [
        {
          "internalType": "address",
          "name": "",
          "type": "address"
        }
      ],
      "stateMutability": "view",
      "type": "function"
    },
    {
      "inputs": [
        {
          "internalType": "string",
          "name": "_dataURI",
          "type": "string"
        },
        {
          "internalType": "bool",
          "name": "_active",
          "type": "bool"
        }
      ],
      "name": "registerLodgingFacility",
      "outputs": [],
      "stateMutability": "nonpayable",
      "type": "function"
    },
    {
      "inputs": [
        {
          "internalType": "address",
          "name": "from",
          "type": "address"
        },
        {
          "internalType": "address",
          "name": "to",
          "type": "address"
        },
        {
          "internalType": "uint256",
          "name": "tokenId",
          "type": "uint256"
        }
      ],
      "name": "safeTransferFrom",
      "outputs": [],
      "stateMutability": "nonpayable",
      "type": "function"
    },
    {
      "inputs": [
        {
          "internalType": "address",
          "name": "from",
          "type": "address"
        },
        {
          "internalType": "address",
          "name": "to",
          "type": "address"
        },
        {
          "internalType": "uint256",
          "name": "tokenId",
          "type": "uint256"
        },
        {
          "internalType": "bytes",
          "name": "_data",
          "type": "bytes"
        }
      ],
      "name": "safeTransferFrom",
      "outputs": [],
      "stateMutability": "nonpayable",
      "type": "function"
    },
    {
      "inputs": [
        {
          "internalType": "address",
          "name": "operator",
          "type": "address"
        },
        {
          "internalType": "bool",
          "name": "approved",
          "type": "bool"
        }
      ],
      "name": "setApprovalForAll",
      "outputs": [],
      "stateMutability": "nonpayable",
      "type": "function"
    },
    {
      "inputs": [
        {
          "internalType": "bytes32",
          "name": "",
          "type": "bytes32"
        }
      ],
      "name": "spaces",
      "outputs": [
        {
          "internalType": "bytes32",
          "name": "lodgingFacilityId",
          "type": "bytes32"
        },
        {
          "internalType": "uint16",
          "name": "capacity",
          "type": "uint16"
        },
        {
          "internalType": "uint256",
          "name": "pricePerNightWei",
          "type": "uint256"
        },
        {
          "internalType": "bool",
          "name": "active",
          "type": "bool"
        },
        {
          "internalType": "bool",
          "name": "exists",
          "type": "bool"
        },
        {
          "internalType": "string",
          "name": "dataURI",
          "type": "string"
        }
      ],
      "stateMutability": "view",
      "type": "function"
    },
    {
      "inputs": [
        {
          "internalType": "bytes4",
          "name": "interfaceId",
          "type": "bytes4"
        }
      ],
      "name": "supportsInterface",
      "outputs": [
        {
          "internalType": "bool",
          "name": "",
          "type": "bool"
        }
      ],
      "stateMutability": "view",
      "type": "function"
    },
    {
      "inputs": [],
      "name": "symbol",
      "outputs": [
        {
          "internalType": "string",
          "name": "",
          "type": "string"
        }
      ],
      "stateMutability": "view",
      "type": "function"
    },
    {
      "inputs": [
        {
          "internalType": "uint256",
          "name": "tokenId",
          "type": "uint256"
        }
      ],
      "name": "tokenURI",
      "outputs": [
        {
          "internalType": "string",
          "name": "",
          "type": "string"
        }
      ],
      "stateMutability": "view",
      "type": "function"
    },
    {
      "inputs": [
        {
          "internalType": "address",
          "name": "from",
          "type": "address"
        },
        {
          "internalType": "address",
          "name": "to",
          "type": "address"
        },
        {
          "internalType": "uint256",
          "name": "tokenId",
          "type": "uint256"
        }
      ],
      "name": "transferFrom",
      "outputs": [],
      "stateMutability": "nonpayable",
      "type": "function"
    },
    {
      "inputs": [
        {
          "internalType": "uint256",
          "name": "_lodgingFacilityId",
          "type": "uint256"
        },
        {
          "internalType": "string",
          "name": "_newDataURI",
          "type": "string"
        }
      ],
      "name": "updateLodgingFacility",
      "outputs": [],
      "stateMutability": "nonpayable",
      "type": "function"
    },
    {
      "inputs": [
        {
          "internalType": "uint256",
          "name": "_spaceIndex",
          "type": "uint256"
        },
        {
          "internalType": "uint16",
          "name": "_capacity",
          "type": "uint16"
        },
        {
          "internalType": "uint64",
          "name": "_pricePerNightWei",
          "type": "uint64"
        },
        {
          "internalType": "bool",
          "name": "_active",
          "type": "bool"
        },
        {
          "internalType": "string",
          "name": "_dataURI",
          "type": "string"
        }
      ],
      "name": "updateSpace",
      "outputs": [],
      "stateMutability": "nonpayable",
      "type": "function"
    },
    {
      "inputs": [
        {
          "internalType": "uint256",
          "name": "_lodgingFacilityId",
          "type": "uint256"
        },
        {
          "internalType": "address",
          "name": "_newOwner",
          "type": "address"
        }
      ],
      "name": "yieldLodgingFacility",
      "outputs": [],
      "stateMutability": "nonpayable",
      "type": "function"
    }
  ],
  "bytecode": "0x6080604052600780546001600160a01b03191673fcad0b19bb29d4674531d6f115237e16afce377c1790553480156200003757600080fd5b50604080518082018252600b81526a45746852696f537461797360a81b60208083019182528351808501909452600584526422a929991960d91b9084015281519192916200008891600091620000a7565b5080516200009e906001906020840190620000a7565b5050506200018a565b828054620000b5906200014d565b90600052602060002090601f016020900481019282620000d9576000855562000124565b82601f10620000f457805160ff191683800117855562000124565b8280016001018555821562000124579182015b828111156200012457825182559160200191906001019062000107565b506200013292915062000136565b5090565b5b8082111562000132576000815560010162000137565b600181811c908216806200016257607f821691505b602082108114156200018457634e487b7160e01b600052602260045260246000fd5b50919050565b612dd5806200019a6000396000f3fe6080604052600436106101b75760003560e01c80639518f5fa116100ec578063b88d4fde1161008a578063e1e33b9c11610064578063e1e33b9c146104d4578063e985e9c5146104f4578063e994529e1461053d578063ffae74151461056f57600080fd5b8063b88d4fde14610494578063c87b56dd146104b4578063d9462b2c1461039d57600080fd5b8063a22cb465116100c6578063a22cb4651461042a578063a6bce27b1461044a578063a728da331461046a578063b38759fd1461047f57600080fd5b80639518f5fa146103bb57806395d89b41146103e85780639ff68214146103fd57600080fd5b80633c5754be116101595780635b5d206d116101335780635b5d206d146103305780636352211e1461035d57806370a082311461037d57806372e84c7a1461039d57600080fd5b80633c5754be146102cc57806342842e0e146102ef57806343be91731461030f57600080fd5b8063095ea7b311610195578063095ea7b31461024b5780630f0fc5011461026d578063139367661461028c57806323b872dd146102ac57600080fd5b806301ffc9a7146101bc57806306fdde03146101f1578063081812fc14610213575b600080fd5b3480156101c857600080fd5b506101dc6101d7366004612387565b61059f565b60405190151581526020015b60405180910390f35b3480156101fd57600080fd5b506102066105f1565b6040516101e891906123fc565b34801561021f57600080fd5b5061023361022e36600461240f565b610683565b6040516001600160a01b0390911681526020016101e8565b34801561025757600080fd5b5061026b610266366004612444565b610710565b005b34801561027957600080fd5b5061026b61028836600461246e565b5050565b34801561029857600080fd5b5061026b6102a73660046124e3565b505050565b3480156102b857600080fd5b5061026b6102c736600461252f565b610821565b3480156102d857600080fd5b5061026b6102e73660046125a5565b505050505050565b3480156102fb57600080fd5b5061026b61030a36600461252f565b610852565b61032261031d3660046126b0565b61086d565b6040519081526020016101e8565b34801561033c57600080fd5b5061035061034b36600461273d565b610b58565b6040516101e89190612779565b34801561036957600080fd5b5061023361037836600461240f565b610d3d565b34801561038957600080fd5b506103226103983660046127c1565b610db4565b3480156103a957600080fd5b5061026b6103b836600461240f565b50565b3480156103c757600080fd5b506103db6103d636600461240f565b610e3b565b6040516101e891906127dc565b3480156103f457600080fd5b50610206610e9d565b34801561040957600080fd5b506104156362155d6e81565b60405163ffffffff90911681526020016101e8565b34801561043657600080fd5b5061026b610445366004612814565b610eac565b34801561045657600080fd5b5061026b6104653660046125a5565b610eb7565b34801561047657600080fd5b506103db611114565b34801561048b57600080fd5b506103db611174565b3480156104a057600080fd5b5061026b6104af36600461283e565b6111ca565b3480156104c057600080fd5b506102066104cf36600461240f565b611202565b3480156104e057600080fd5b5061026b6104ef3660046128ba565b611379565b34801561050057600080fd5b506101dc61050f366004612905565b6001600160a01b03918216600090815260056020908152604080832093909416825291909152205460ff1690565b34801561054957600080fd5b5061055d61055836600461240f565b6115c7565b6040516101e89695949392919061292f565b34801561057b57600080fd5b5061058f61058a36600461240f565b611694565b6040516101e89493929190612974565b60006001600160e01b031982166380ac58cd60e01b14806105d057506001600160e01b03198216635b5e139f60e01b145b806105eb57506301ffc9a760e01b6001600160e01b03198316145b92915050565b606060008054610600906129b2565b80601f016020809104026020016040519081016040528092919081815260200182805461062c906129b2565b80156106795780601f1061064e57610100808354040283529160200191610679565b820191906000526020600020905b81548152906001019060200180831161065c57829003601f168201915b5050505050905090565b600061068e82611758565b6106f45760405162461bcd60e51b815260206004820152602c60248201527f4552433732313a20617070726f76656420717565727920666f72206e6f6e657860448201526b34b9ba32b73a103a37b5b2b760a11b60648201526084015b60405180910390fd5b506000908152600460205260409020546001600160a01b031690565b600061071b82610d3d565b9050806001600160a01b0316836001600160a01b031614156107895760405162461bcd60e51b815260206004820152602160248201527f4552433732313a20617070726f76616c20746f2063757272656e74206f776e656044820152603960f91b60648201526084016106eb565b336001600160a01b03821614806107a557506107a5813361050f565b6108175760405162461bcd60e51b815260206004820152603860248201527f4552433732313a20617070726f76652063616c6c6572206973206e6f74206f7760448201527f6e6572206e6f7220617070726f76656420666f7220616c6c000000000000000060648201526084016106eb565b6102a78383611775565b61082b33826117e3565b6108475760405162461bcd60e51b81526004016106eb906129ed565b6102a78383836118c9565b6102a7838383604051806020016040528060008152506111ca565b600061087a868686611a65565b6000868152600c60209081526040808320815160c08101835281548152600182015461ffff1693810193909352600281015491830191909152600381015460ff80821615156060850152610100909104161515608083015260048101805460a0840191906108e7906129b2565b80601f0160208091040260200160405190810160405280929190818152602001828054610913906129b2565b80156109605780601f1061093557610100808354040283529160200191610960565b820191906000526020600020905b81548152906001019060200180831161094357829003601f168201915b50505050508152505090508060400151848661097c9190612a54565b61ffff1661098a9190612a7e565b3410156109ce5760405162461bcd60e51b81526020600482015260126024820152714e6565642e204d6f72652e204d6f6e65792160701b60448201526064016106eb565b60005b8561ffff168161ffff161015610ae4576000888152600e6020526040812061ffff8716916109ff848b612a9d565b61ffff908116825260208083019390935260409091016000205491850151610a2a9290911690612ac3565b61ffff161015610a755760405162461bcd60e51b8152602060048201526016602482015275496e73756666696369656e7420696e76656e746f727960501b60448201526064016106eb565b6000888152600e602052604081208691610a8f848b612a9d565b61ffff90811682526020820192909252604001600090812080549092610ab791859116612a9d565b92506101000a81548161ffff021916908361ffff1602179055508080610adc90612ae6565b9150506109d1565b50610af3600f80546001019055565b6000610afe600f5490565b9050610b0a3382611c08565b610b148185611c22565b60408051898152602081018390527ffc8007b137c96005ae996bdf6fc033c6fe4496b538b83fe89120eae3db6f09e9910160405180910390a1979650505050505050565b6060610b65848484611a65565b6000848152600c60209081526040808320815160c08101835281548152600182015461ffff1693810193909352600281015491830191909152600381015460ff80821615156060850152610100909104161515608083015260048101805460a084019190610bd2906129b2565b80601f0160208091040260200160405190810160405280929190818152602001828054610bfe906129b2565b8015610c4b5780601f10610c2057610100808354040283529160200191610c4b565b820191906000526020600020905b815481529060010190602001808311610c2e57829003601f168201915b505050505081525050905060008361ffff1667ffffffffffffffff811115610c7557610c75612624565b604051908082528060200260200182016040528015610c9e578160200160208202803683370190505b50905060005b8461ffff168161ffff161015610d33576000878152600e6020526040812090610ccd8389612a9d565b61ffff908116825260208083019390935260409091016000205491850151610cf89290911690612ac3565b828261ffff1681518110610d0e57610d0e612b08565b61ffff9092166020928302919091019091015280610d2b81612ae6565b915050610ca4565b5095945050505050565b6000818152600260205260408120546001600160a01b0316806105eb5760405162461bcd60e51b815260206004820152602960248201527f4552433732313a206f776e657220717565727920666f72206e6f6e657869737460448201526832b73a103a37b5b2b760b91b60648201526084016106eb565b60006001600160a01b038216610e1f5760405162461bcd60e51b815260206004820152602a60248201527f4552433732313a2062616c616e636520717565727920666f7220746865207a65604482015269726f206164647265737360b01b60648201526084016106eb565b506001600160a01b031660009081526003602052604090205490565b6000818152600b6020908152604091829020805483518184028101840190945280845260609392830182828015610e9157602002820191906000526020600020905b815481526020019060010190808311610e7d575b50505050509050919050565b606060018054610600906129b2565b610288338383611cad565b85610ec181611d7c565b610ee381604051806060016040528060228152602001612d7e60229139611de1565b610f2283838080601f016020809104026020016040519081016040528093929190818152602001838380828437600092019190915250611e1a92505050565b6000818484604051602001610f3993929190612b1e565b60408051808303601f1901815291815281516020928301206000818152600c909352912060030154909150610100900460ff1615610fb05760405162461bcd60e51b8152602060048201526014602482015273537061636520616c72656164792065786973747360601b60448201526064016106eb565b6040518060c001604052808381526020018861ffff1681526020018767ffffffffffffffff168152602001861515815260200160011515815260200185858080601f0160208091040260200160405190810160405280939291908181526020018383808284376000920182905250939094525050838152600c6020908152604091829020845181558482015160018201805461ffff90921661ffff199283161790559285015160028201556060850151600382018054608088015115156101000261ff0019931515939093169516949094171790925560a084015180519293506110a392600485019291909101906122d8565b5050506000828152600b6020908152604080832080546001810182559084529190922001829055517f7993127b29bb7eb5c740a2bdf13dbe1721be38172db915f7767aefe0bae7936e906111029084908a908a908a908a908a90612b61565b60405180910390a15050505050505050565b3360009081526009602090815260409182902080548351818402810184019094528084526060939283018282801561067957602002820191906000526020600020905b815481526020019060010190808311611157575050505050905090565b606060088054806020026020016040519081016040528092919081815260200182805480156106795760200282019190600052602060002090815481526020019060010190808311611157575050505050905090565b6111d433836117e3565b6111f05760405162461bcd60e51b81526004016106eb906129ed565b6111fc84848484611e6b565b50505050565b606061120d82611758565b6112735760405162461bcd60e51b815260206004820152603160248201527f45524337323155524953746f726167653a2055524920717565727920666f72206044820152703737b732bc34b9ba32b73a103a37b5b2b760791b60648201526084016106eb565b6000828152600660205260408120805461128c906129b2565b80601f01602080910402602001604051908101604052809291908181526020018280546112b8906129b2565b80156113055780601f106112da57610100808354040283529160200191611305565b820191906000526020600020905b8154815290600101906020018083116112e857829003601f168201915b50505050509050600061132360408051602081019091526000815290565b9050805160001415611336575092915050565b815115611368578082604051602001611350929190612b9d565b60405160208183030381529060405292505050919050565b61137184611e9e565b949350505050565b6113b883838080601f016020809104026020016040519081016040528093929190818152602001838380828437600092019190915250611e1a92505050565b60003384846040516020016113cf93929190612bc3565b60408051808303601f1901815291815281516020928301206000818152600a909352912054909150600160a81b900460ff161561144e5760405162461bcd60e51b815260206004820152601760248201527f466163696c69747920616c72656164792065786973747300000000000000000060448201526064016106eb565b60405180608001604052806114603390565b6001600160a01b03168152602001831515815260200160011515815260200185858080601f0160208091040260200160405190810160405280939291908181526020018383808284376000920182905250939094525050838152600a60209081526040918290208451815486840151948701511515600160a81b0260ff60a81b19951515600160a01b026001600160a81b03199092166001600160a01b039093169290921717939093169290921782556060840151805192935061152d92600185019291909101906122d8565b50506008805460018082019092557ff3f7a9fe364faab93b216da50a3214154f22a0a2b415b23a84c8169e8b636ee301839055336000818152600960209081526040808320805495860181558352912090920184905590519091507f28c9a25063d40c8cf423202182ed575cc97982c1fd1771bd9721e19a38cc491d906115b990849088908890612bef565b60405180910390a250505050565b600c6020526000908152604090208054600182015460028301546003840154600485018054949561ffff90941694929360ff808416946101009094041692909190611611906129b2565b80601f016020809104026020016040519081016040528092919081815260200182805461163d906129b2565b801561168a5780601f1061165f5761010080835404028352916020019161168a565b820191906000526020600020905b81548152906001019060200180831161166d57829003601f168201915b5050505050905086565b600a60205260009081526040902080546001820180546001600160a01b0383169360ff600160a01b8504811694600160a81b9004169290916116d5906129b2565b80601f0160208091040260200160405190810160405280929190818152602001828054611701906129b2565b801561174e5780601f106117235761010080835404028352916020019161174e565b820191906000526020600020905b81548152906001019060200180831161173157829003601f168201915b5050505050905084565b6000908152600260205260409020546001600160a01b0316151590565b600081815260046020526040902080546001600160a01b0319166001600160a01b03841690811790915581906117aa82610d3d565b6001600160a01b03167f8c5be1e5ebec7d5bd14f71427d1e84f3dd0314c0f7b2291e5b200ac8c7c3b92560405160405180910390a45050565b60006117ee82611758565b61184f5760405162461bcd60e51b815260206004820152602c60248201527f4552433732313a206f70657261746f7220717565727920666f72206e6f6e657860448201526b34b9ba32b73a103a37b5b2b760a11b60648201526084016106eb565b600061185a83610d3d565b9050806001600160a01b0316846001600160a01b031614806118955750836001600160a01b031661188a84610683565b6001600160a01b0316145b8061137157506001600160a01b0380821660009081526005602090815260408083209388168352929052205460ff16611371565b826001600160a01b03166118dc82610d3d565b6001600160a01b0316146119405760405162461bcd60e51b815260206004820152602560248201527f4552433732313a207472616e736665722066726f6d20696e636f72726563742060448201526437bbb732b960d91b60648201526084016106eb565b6001600160a01b0382166119a25760405162461bcd60e51b8152602060048201526024808201527f4552433732313a207472616e7366657220746f20746865207a65726f206164646044820152637265737360e01b60648201526084016106eb565b6119ad600082611775565b6001600160a01b03831660009081526003602052604081208054600192906119d6908490612c12565b90915550506001600160a01b0382166000908152600360205260408120805460019290611a04908490612c29565b909155505060008181526002602052604080822080546001600160a01b0319166001600160a01b0386811691821790925591518493918716917fddf252ad1be2c89b69c2b068fc378daa952ba7f163c4a11628f55a4df523b3ef91a4505050565b611a726202a30042612c12565b611a8361ffff841662015180612c41565b611a969062ffffff166362155d6e612c63565b63ffffffff1611611ae25760405162461bcd60e51b8152602060048201526016602482015275111bdb89dd081cdd185e481a5b881d1a19481c185cdd60521b60448201526064016106eb565b6000838152600c60209081526040808320548352600a909152902054600160a01b900460ff16611b545760405162461bcd60e51b815260206004820152601c60248201527f4c6f6467696e6720466163696c69747920697320696e6163746976650000000060448201526064016106eb565b6000838152600c602052604090206003015460ff16611ba95760405162461bcd60e51b8152602060048201526011602482015270537061636520697320696e61637469766560781b60448201526064016106eb565b60008161ffff16116102a75760405162461bcd60e51b815260206004820152602260248201527f4e756d626572206f6620646179732073686f756c642062652031206f72206d6f604482015261726560f01b60648201526084016106eb565b610288828260405180602001604052806000815250611f76565b611c2b82611758565b611c8e5760405162461bcd60e51b815260206004820152602e60248201527f45524337323155524953746f726167653a2055524920736574206f66206e6f6e60448201526d32bc34b9ba32b73a103a37b5b2b760911b60648201526084016106eb565b600082815260066020908152604090912082516102a7928401906122d8565b816001600160a01b0316836001600160a01b03161415611d0f5760405162461bcd60e51b815260206004820152601960248201527f4552433732313a20617070726f766520746f2063616c6c65720000000000000060448201526064016106eb565b6001600160a01b03838116600081815260056020908152604080832094871680845294825291829020805460ff191686151590811790915591519182527f17307eab39ab6107e8899845ad3d59bd9653f200f220920489ca2b5937696c31910160405180910390a3505050565b6000818152600a6020526040902054600160a81b900460ff166103b85760405162461bcd60e51b815260206004820152601760248201527f466163696c69747920646f6573206e6f7420657869737400000000000000000060448201526064016106eb565b6000828152600a602052604090205481906001600160a01b031633146102a75760405162461bcd60e51b81526004016106eb91906123fc565b60008151116103b85760405162461bcd60e51b815260206004820152601960248201527f4461746120555249206d7573742062652070726f76696465640000000000000060448201526064016106eb565b611e768484846118c9565b611e8284848484611fa9565b6111fc5760405162461bcd60e51b81526004016106eb90612c82565b6060611ea982611758565b611f0d5760405162461bcd60e51b815260206004820152602f60248201527f4552433732314d657461646174613a2055524920717565727920666f72206e6f60448201526e3732bc34b9ba32b73a103a37b5b2b760891b60648201526084016106eb565b6000611f2460408051602081019091526000815290565b90506000815111611f445760405180602001604052806000815250611f6f565b80611f4e846120a7565b604051602001611f5f929190612b9d565b6040516020818303038152906040525b9392505050565b611f8083836121a5565b611f8d6000848484611fa9565b6102a75760405162461bcd60e51b81526004016106eb90612c82565b60006001600160a01b0384163b1561209c57604051630a85bd0160e11b81526001600160a01b0385169063150b7a0290611fed903390899088908890600401612cd4565b6020604051808303816000875af1925050508015612028575060408051601f3d908101601f1916820190925261202591810190612d07565b60015b612082573d808015612056576040519150601f19603f3d011682016040523d82523d6000602084013e61205b565b606091505b50805161207a5760405162461bcd60e51b81526004016106eb90612c82565b805181602001fd5b6001600160e01b031916630a85bd0160e11b149050611371565b506001949350505050565b6060816120cb5750506040805180820190915260018152600360fc1b602082015290565b8160005b81156120f557806120df81612d24565b91506120ee9050600a83612d55565b91506120cf565b60008167ffffffffffffffff81111561211057612110612624565b6040519080825280601f01601f19166020018201604052801561213a576020820181803683370190505b5090505b84156113715761214f600183612c12565b915061215c600a86612d69565b612167906030612c29565b60f81b81838151811061217c5761217c612b08565b60200101906001600160f81b031916908160001a90535061219e600a86612d55565b945061213e565b6001600160a01b0382166121fb5760405162461bcd60e51b815260206004820181905260248201527f4552433732313a206d696e7420746f20746865207a65726f206164647265737360448201526064016106eb565b61220481611758565b156122515760405162461bcd60e51b815260206004820152601c60248201527f4552433732313a20746f6b656e20616c7265616479206d696e7465640000000060448201526064016106eb565b6001600160a01b038216600090815260036020526040812080546001929061227a908490612c29565b909155505060008181526002602052604080822080546001600160a01b0319166001600160a01b03861690811790915590518392907fddf252ad1be2c89b69c2b068fc378daa952ba7f163c4a11628f55a4df523b3ef908290a45050565b8280546122e4906129b2565b90600052602060002090601f016020900481019282612306576000855561234c565b82601f1061231f57805160ff191683800117855561234c565b8280016001018555821561234c579182015b8281111561234c578251825591602001919060010190612331565b5061235892915061235c565b5090565b5b80821115612358576000815560010161235d565b6001600160e01b0319811681146103b857600080fd5b60006020828403121561239957600080fd5b8135611f6f81612371565b60005b838110156123bf5781810151838201526020016123a7565b838111156111fc5750506000910152565b600081518084526123e88160208601602086016123a4565b601f01601f19169290920160200192915050565b602081526000611f6f60208301846123d0565b60006020828403121561242157600080fd5b5035919050565b80356001600160a01b038116811461243f57600080fd5b919050565b6000806040838503121561245757600080fd5b61246083612428565b946020939093013593505050565b6000806040838503121561248157600080fd5b8235915061249160208401612428565b90509250929050565b60008083601f8401126124ac57600080fd5b50813567ffffffffffffffff8111156124c457600080fd5b6020830191508360208285010111156124dc57600080fd5b9250929050565b6000806000604084860312156124f857600080fd5b83359250602084013567ffffffffffffffff81111561251657600080fd5b6125228682870161249a565b9497909650939450505050565b60008060006060848603121561254457600080fd5b61254d84612428565b925061255b60208501612428565b9150604084013590509250925092565b803561ffff8116811461243f57600080fd5b803567ffffffffffffffff8116811461243f57600080fd5b8035801515811461243f57600080fd5b60008060008060008060a087890312156125be57600080fd5b863595506125ce6020880161256b565b94506125dc6040880161257d565b93506125ea60608801612595565b9250608087013567ffffffffffffffff81111561260657600080fd5b61261289828a0161249a565b979a9699509497509295939492505050565b634e487b7160e01b600052604160045260246000fd5b600067ffffffffffffffff8084111561265557612655612624565b604051601f8501601f19908116603f0116810190828211818310171561267d5761267d612624565b8160405280935085815286868601111561269657600080fd5b858560208301376000602087830101525050509392505050565b600080600080600060a086880312156126c857600080fd5b853594506126d86020870161256b565b93506126e66040870161256b565b92506126f46060870161256b565b9150608086013567ffffffffffffffff81111561271057600080fd5b8601601f8101881361272157600080fd5b6127308882356020840161263a565b9150509295509295909350565b60008060006060848603121561275257600080fd5b833592506127626020850161256b565b91506127706040850161256b565b90509250925092565b6020808252825182820181905260009190848201906040850190845b818110156127b557835161ffff1683529284019291840191600101612795565b50909695505050505050565b6000602082840312156127d357600080fd5b611f6f82612428565b6020808252825182820181905260009190848201906040850190845b818110156127b5578351835292840192918401916001016127f8565b6000806040838503121561282757600080fd5b61283083612428565b915061249160208401612595565b6000806000806080858703121561285457600080fd5b61285d85612428565b935061286b60208601612428565b925060408501359150606085013567ffffffffffffffff81111561288e57600080fd5b8501601f8101871361289f57600080fd5b6128ae8782356020840161263a565b91505092959194509250565b6000806000604084860312156128cf57600080fd5b833567ffffffffffffffff8111156128e657600080fd5b6128f28682870161249a565b9094509250612770905060208501612595565b6000806040838503121561291857600080fd5b61292183612428565b915061249160208401612428565b86815261ffff861660208201528460408201528315156060820152821515608082015260c060a0820152600061296860c08301846123d0565b98975050505050505050565b6001600160a01b0385168152831515602082015282151560408201526080606082018190526000906129a8908301846123d0565b9695505050505050565b600181811c908216806129c657607f821691505b602082108114156129e757634e487b7160e01b600052602260045260246000fd5b50919050565b60208082526031908201527f4552433732313a207472616e736665722063616c6c6572206973206e6f74206f6040820152701ddb995c881b9bdc88185c1c1c9bdd9959607a1b606082015260800190565b634e487b7160e01b600052601160045260246000fd5b600061ffff80831681851681830481118215151615612a7557612a75612a3e565b02949350505050565b6000816000190483118215151615612a9857612a98612a3e565b500290565b600061ffff808316818516808303821115612aba57612aba612a3e565b01949350505050565b600061ffff83811690831681811015612ade57612ade612a3e565b039392505050565b600061ffff80831681811415612afe57612afe612a3e565b6001019392505050565b634e487b7160e01b600052603260045260246000fd5b838152818360208301376000910160200190815292915050565b81835281816020850137506000828201602090810191909152601f909101601f19169091010190565b86815261ffff8616602082015267ffffffffffffffff85166040820152831515606082015260a06080820152600061296860a083018486612b38565b60008351612baf8184602088016123a4565b835190830190612aba8183602088016123a4565b6bffffffffffffffffffffffff198460601b168152818360148301376000910160140190815292915050565b838152604060208201526000612c09604083018486612b38565b95945050505050565b600082821015612c2457612c24612a3e565b500390565b60008219821115612c3c57612c3c612a3e565b500190565b600062ffffff80831681851681830481118215151615612a7557612a75612a3e565b600063ffffffff808316818516808303821115612aba57612aba612a3e565b60208082526032908201527f4552433732313a207472616e7366657220746f206e6f6e20455243373231526560408201527131b2b4bb32b91034b6b83632b6b2b73a32b960711b606082015260800190565b6001600160a01b03858116825284166020820152604081018390526080606082018190526000906129a8908301846123d0565b600060208284031215612d1957600080fd5b8151611f6f81612371565b6000600019821415612d3857612d38612a3e565b5060010190565b634e487b7160e01b600052601260045260246000fd5b600082612d6457612d64612d3f565b500490565b600082612d7857612d78612d3f565b50069056fe4f6e6c7920666163696c697479206f776e6572206d61792061646420537061636573a264697066735822122061ef1d9631ac99e2aa470ff24f6050db96349fb54f48a7d10fd58b784c47cab664736f6c634300080a0033",
  "linkReferences": {},
  "deployedLinkReferences": {}
}